:030000000208955E
:0C089500787FE4F6D8FD7581070208307A
:100830001208007F861208737F441208847F4912D1
:1008400008847F501208847F411208847F4B12086D
:030850008480FEA3
:100800007F381208737F1E7E001208537F0F120874
:10081000737F0A7E001208537F061208737F0A7ED8
:10082000001208537F011208737F0A7E00020853EA
:10087300C281C2808FA0D282C2827F057E0002081D
:010883005321
:10088400C281D2808FA0D282C2827F017E00020800
:010894005310
:10085300E4FDFCD3ED9FEC9E5015E4FBFA0BBB00CB
:0F086300010ABA04F8BBFCF50DBD00010C80E4DE
:010872002263
:00000001FF
